:020000040800F2
:100000009010002001010008170A000819020008DA
:10001000150A0008BD0100089D0C00080000000042
:10002000000000000000000000000000490B000874
:100030001702000800000000910A00084D0B00089C
:100040001B0100081B0100081B0100081B01000820
:100050001B0100081B0100081B0100081B01000810
:100060001B0100081B0100081B010008C10100085A
:100070001B0100081B010008150200081B010008F5
:100080001B0100081B0100081B0100081B010008E0
:100090001B0100081B0100081B0100081B010008D0
:1000A0001B0100081B0100081B0100081B010008C0
:1000B0001B010008510C00081B0100081B0100086F
:1000C0001B0100081B0100081B0100081B010008A0
:1000D0001B010008690C00081B0100081B01000837
:1000E0001B0100081B0100081B010008DFF80CD0F1
:1000F00000F052F800480047C1120008901000209C
:100100000648804706480047FEE7FEE7FEE7FEE7B1
:10011000FEE7FEE7FEE7FEE7FEE7FEE7090C000864
:10012000ED000008D2B201E000F8012B491EFBD21D
:1001300070470022F6E710B513460A4604461946F2
:10014000FFF7F0FF204610BD30B505462A460B46A6
:1001500012F8010B13F8014B08B1A042F8D01CB102
:10016000002802D06D1CF1E7284630BD30B50B46A3
:10017000014600202022012409E021FA02F59D42D7
:1001800005D303FA02F5491B04FA02F52844151EAB
:10019000A2F10102F1DC30BD064C074D06E0E0683B
:1001A00040F0010394E8070098471034AC42F6D3BE
:1001B000FFF7A0FFE815000808160008FEE700009A
:1001C00011480168C1F3800210491AB1042242604B
:1001D00000220A700268C2F340021AB10222426091
:1001E00001220A700168C1F3403100290BD04FF49D
:1001F00000514160064A111DD278825811F8011C45
:1002000022F00102425070470000024040000020EE
:10021000C815000870477047FEE700000D4B10B589
:100220009B6801220C4C03F00103A46804F0010454
:10023000234302D00022104610BD096829B143684B
:1002400023F470230B434360F5E7416821F47021E8
:100250004160F0E7002401400028014010B58368A8
:10026000012213F0010F02D00022104610BD436896
:100270004C6823F48073234343608368096823F444
:1002800000630B438360F0E770B54B68846801221C
:1002900014F0010F02D00022104670BD33B18C68FB
:1002A0002343446824F46844234302E0436823F46E
:1002B00068434360CC680B68856823430C69064E2D
:1002C00035402C43234383604968C36A23F4700399
:1002D0000B43C362E0E70000FDFEF1FF044908B5EF
:1002E000CA690243CA61C9690140009108BD0000A2
:1002F00000100240044908B58A6902438A6189698D
:100300000140009108BD000000100240044A114461
:1003100011F8011C425842F001024250704700009F
:1003200069150008044A114411F8011C425842F0B2
:10033000020242507047000069150008044B19443E
:1003400011F8011C435823F44053134343507047A2
:1003500069150008054B001D194411F8011C0B58C4
:100360006FF30F0313430B5070470000691500082B
:10037000054B10B5194411F8011C435844F2100400
:10038000A3431343435010BD69150008044B19449F
:1003900011F8011C435823F0800313434350704766
:1003A00069150008044B194411F8011C435823F443
:1003B000406313434350704769150008044B1944C8
:1003C00011F8011C435823F0200313434350704796
:1003D00069150008044B194411F8011C435823F017
:1003E000400313434350704769150008044B1944F8
:1003F00011F8011C435823F44073134343507047D2
:1004000069150008F0B50A68C2F30F2595FAA5F240
:10041000B2FA82F369E001229A402A4264D0082BA2
:1004200003D240F201129A4006E0A3F108024FF015
:100430000114944044F0806292FAA2F700EB126437
:10044000B7FA87F74FEA870C0F27266807FA0CF7E9
:10045000BE4392FAA2F7D1F804E0B7FA87F7BF00DB
:100460000EFA07FE46EA0E0626600E69C7684FEAD6
:10047000122C9CFAACFCBCFA8CFC27EA122706FA78
:100480000CF63743C7604E68012E01D0092E2BD1E0
:1004900092FAA2F7B7FA87F74FEA870C032707FA11
:1004A0000CF72668D1F808E0BE4392FAA2F7B7FA33
:1004B00087F7BF000EFA07FE92FAA2FC46EA0E0684
:1004C000BCFA8CFC4FEA8C0E4FF0040C26600CFA40
:1004D0000EFC92FAA2F2B2FA82F2CF68920026EAF9
:1004E0000C0697403E4326605B1C35FA03F292D11E
:1004F0000120F0BD4FF47A71B0FBF1F14FF0E02034
:10050000491E41610021816105210161704700B5EB
:10051000034600F0E9FA186000F0BCFA586000F0F9
:10052000C7FA9860586800F0D1FAD86000BD0000A2
:10053000014908607047000058000020F0B50268CB
:10054000154B164C164D4FF08046984205D0B042E0
:1005500003D0A04201D0A84203D14F6822F070021C
:100560003A43984205D0B04203D0A04201D0A842FD
:1005700003D1CC6822F44072224302608A68C262CE
:100580000A888262984201D1097C0163416941F085
:10059000010141610120F0BD002C01400004004038
:1005A00000080040134B01221349984208D1C86843
:1005B00040F48040C860C86820F48040C86017E0FC
:1005C0000E4B984207D1086940F400300861086971
:1005D00020F4003009E00A4B984208D1086940F441
:1005E00080200861086920F48020086100E0002272
:1005F000104670470038014000100240004400409F
:10060000004800402DE9FF410446C0680D46002621
:10061000C0F34030F0BBE9686868E26808432969C4
:1006200041F20C639A4311430843E060A8682169D2
:1006300021F44051014321616869616921F44071ED
:10064000014361616846FFF762FF2448844201D19B
:10065000039806E02248844202D02248844238D1DE
:100660000298B8B12A68AAB100EBC00101EB0011F1
:100670009200B1FBF2F36420B3FBF0F3B1FBF2F5AF
:100680006FF018077B43012605EB8305322303EB4C
:10069000051500E01DE0B1FBF2F7B5FBF0F5B7FB87
:1006A000F0F705F0F00505EB0715B1FBF2F7B1FB2C
:1006B000F2F1B1FBF0F16FF01802514307EB810149
:1006C00003EB0111B1FBF0F000F00F00284480B201
:1006D000A06004B03046BDE8F08100000038014061
:1006E000004400400048004008B54FF0E0210A698E
:1006F0000092421C00D0401C0A69D20300D5401E63
:100700000028F9D108BD0000F0B58FB000240A948C
:100710000B94142168460C94FFF70BFD142105A8D7
:10072000FFF707FD4FF400752846FFF7E3FD0820AB
:10073000FFF7E0FD40F20110CDE9050405A93748B7
:10074000FFF760FE364E002201213046FFF710FE13
:10075000002201213046FFF7F1FD20220121304621
:10076000FFF72CFE002201213046FFF733FE8022E6
:1007700001213046FFF70AFE6F103A46012130464C
:10078000FFF734FE6A0001213046FFF70BFE254ECD
:100790000A940AA930460B94FFF760FD0CA9304675
:1007A0000C94FFF73BFDA80200900120CDE9010465
:1007B000CDE9034769463046FFF766FD4FF44070C8
:1007C00090FAA0F0B0FA80F0C54006EB85004FF03B
:1007D000F873C16A93FAA3F521F01F0141F00801F3
:1007E000C162780490FAA0F1B1FA81F1C84006EB39
:1007F00080014FF0C070B5FA85F520FA05F507269F
:10080000AE4093FAA3F3CA68B3FA83F3D840B24375
:1008100084402243CA600FB0F0BD0000000C0140CC
:100820000000024000240140F0B585B01421684664
:10083000FFF77FFC1020FFF75DFD2020FFF75AFD3A
:100840000820FFF757FD0420FFF754FD0F480E491D
:100850004FF4005242610F4C0D4FC21462610125EA
:1008600002268DE86200002103916946FFF7CAFD68
:100870000420CDE90260CDE9007569462046FFF706
:10088000C1FD05B0F0BD00002000200400100140B3
:1008900008000804000C014010B586B01421684619
:1008A000FFF747FC0220FFF719FD00F0D9F80022FE
:1008B000114600F0BCF801461D2000F0D9F81D20BB
:1008C00000F0AAF80020ADF8000040F2DB51CDE9BD
:1008D00001010D4C039069462046FFF72FFE20686A
:1008E00020F080002060A06844F207018843A060E7
:1008F000606820F0700040F020006060A06820F088
:100900008000A06006B010BD0004004030B58BB080
:10091000182105A8FFF70DFC14216846FFF709FC14
:100920004FF48040FFF7E6FC0420FFF7E3FC334878
:1009300000900920019003200025CDE90205304CEC
:1009400069462046FFF75EFD2E4800900420019086
:1009500069462046FFF756FD2B4C10220421204605
:10096000FFF706FD002204212046FFF7E7FC0022E6
:1009700004212046FFF722FD002204212046FFF734
:1009800029FD802204212046FFF700FD00220421DA
:100990002046FFF72BFD002204212046FFF702FD31
:1009A00000F05EF80022114600F041F801462520D3
:1009B00000F05EF8252000F02FF8144CE06840F0BD
:1009C0002000E060124805A94068CDE905050C202B
:1009D000CDE90850079520460A95FFF713FE2069D8
:1009E00020F490402061606920F02A006061E06896
:1009F00040F40050E0600BB030BD00000200020483
:100A000000080140040004040000024000380140D6
:100A100040000020FEE7704700F01F0201219140D6
:100A20004009800000F1E020C0F80011704730B5A7
:100A300000F00703C3F10704042C00D90424181D97
:100A4000072801D2002300E0DB1E012505FA04F08F
:100A5000401E084098409D406D1E1540284330BD03
:100A600002480068C0F30220704700000CED00E06F
:100A70000907090E002806DA00F00F0000F1E02057
:100A800080F8141D704700F1E02080F800147047D2
:100A90007047000004494968044A01F0F00109095F
:100AA000515CC8407047000000100240CF1500089C
:100AB00004494968044A01F4E06102EB1121097814
:100AC000C840704700100240DF150008044949681B
:100AD000044A01F4605102EBD1210978C840704703
:100AE00000100240DF1500080648406810F00C01B5
:100AF000054805D0042903D0082901D100F006B823
:100B0000704700000010024000127A000B48416854
:100B100011F480320A4909D0B2F5803F06D141680C
:100B2000084AC1F34041491CB2FBF1F1406802227E
:100B300000F4701002EB90404843704700100240F0
:100B400000093D0000127A00704700000248016869
:100B5000491C0160704700004800002070B527481C
:100B6000016821F0070141F0020101600068244C96
:100B7000206840F4803020602068C0F340400028A6
:100B8000FAD0606820F47C1040F4E81060602068BF
:100B900040F0807020602068C0F340600028FAD0E8
:100BA000606820F0F0006060606820F4E06040F46D
:100BB00080606060606820F460506060606820F071
:100BC000030040F002006060606800F00C0008283C
:100BD000FAD10C4D2846FFF78DFC4FF0E021086953
:100BE00040F0040008612846FFF7A2FC606820F48A
:100BF000404040F40040606070BD000000200240B2
:100C00000010024000A24A040D48016841F00101B1
:100C1000016041680B4A1140416001680A4A114075
:100C20000160016821F480210160416821F4FE0126
:100C300041604FF41F0181600449C00308607047A0
:100C4000001002400000FFF8FFFFF6FE08ED00E094
:100C50000448016911F0010F02D06FF00101016138
:100C600070470000000400400948C168C1F340110A
:100C700000290BD0426807490888074B0344401CF1
:100C800008801A700888C0F30800088070470000C8
:100C900000380140420000205C000020FEE7000018
:100CA0000FB4054B10B503A9044A029800F02CF8C4
:100CB00010BC5DF814FB0000611200085400002015
:100CC0000FB4084B10B504A902AA039800F01CF851
:100CD000044602A9002000F0F3F8204610BC5DF89D
:100CE00014FB0000C10E000802E008C8121F08C172
:100CF000002AFAD170477047002001E001C1121F9D
:100D0000002AFBD1704700002DE9FF4F8BB09A46B7
:100D10000F460546002606E025280BD052460D99C1
:100D200090476D1C761C28780028F5D10FB030460E
:100D3000BDE8F08F0024A0460122604900E0044392
:100D400015F8013F203B02FA03F00842F7D128785A
:100D50002E2817D115F8010F44F004042A280ED0CC
:100D60006FF02F022878A0F1300109290AD808EB8A
:100D7000880102EB410100EB01086D1CF2E757F816
:100D8000048B6D1C287869283ED006DC0028CDD065
:100D900063280BD0642804D136E0732810D075285E
:100DA0004BD052460D999047761C85E017F8040BFE
:100DB0008DF8000000208DF80100E946012003E0D5
:100DC00057F8049B4FF0FF3061074FF0000401D447
:100DD0000AE0641C44450DDA8442FADB19F8041079
:100DE0000029F6D106E0641C8442FCDB19F80410EB
:100DF0000029F8D1264404E019F8010B52460D9958
:100E00009047641EF8D257E001CF4FF00A0B00283C
:100E100002DA40422D2102E0210504D52B218DF874
:100E20002410012103E0E10705D02021F7E70DF1AF
:100E3000200908910CE00021F9E701CF4FF00A0BDF
:100E4000F9E75946FFF792F901F1300209F8012D4F
:100E50000028F6D1ADEB090000F1200B600701D4AA
:100E60004FF00108D84502DDA8EB0B0000E00020A0
:100E70008046002406E009A85246005D0D9990477F
:100E8000641C761C08988442F5DB04E0302052464E
:100E90000D999047761CB8F10001A8F10108F5DC26
:100EA00005E019F8010B52460D999047761CBBF1ED
:100EB0000001ABF1010BF4DC6D1C34E709280100E3
:100EC0000A68531C0B601070704700002DE9F04158
:100ED0000C4C0E460746A5680DE039460A48FFF758
:100EE00033F940B1394609A0FFF7DAFE00F014F8F3
:100EF0000120BDE8F081A068401BB042EDD3002086
:100F0000F7E70000400000205C00002066696E6486
:100F10002025733B0D0A00000648FF22064B04E023
:100F200041885A544188491E418041880029F7D19F
:100F300070470000400000205C000020FEB5002447
:100F40004FF47A7541F288376E1047A0FFF7A8FE7C
:100F50004D4804E04DA0FFF7A3FE4B48253000F0BC
:100F6000F7FA294616E000BFFFF7B0FF002836D198
:100F700061E04FA0FFF794FE56A000F0E9FA394671
:100F80005CA0F1E75FA0FFF78BFE3F48333000F035
:100F9000DFFA394666A0E7E766A0FFF781FE3A4828
:100FA0003F30DCE76BA0FFF77BFE37484A30D6E7DF
:100FB00034A240F2C64170A08DE807006FA373A26F
:100FC00077A17A48FFF77CFE784979A0FFF768FEA1
:100FD000764800F0BDFA40F6B8317FA0C4E7641C43
:100FE000E4B222E07EA0FFF75BFE2748C01D00F0C0
:100FF000AFFA29464EA0FFF769FFE0B1814980486A
:1010000048608148FFF7CEFAFFF780FCE7E77FA052
:10101000FFF746FE8AA000F09BFA3046FFF764FB1C
:10102000641CE4B28AA000F093FA3046FFF75CFB40
:10103000092C18D002E03046FFF756FBC820FFF716
:1010400053FB092CF1D2DFE804F00D0C0B0A090860
:1010500007060500DBE7C5E7AAE7A3E79CE791E7FA
:1010600087E777E771E7FEBD7374657020313A203A
:1010700073656E645F737472696E67286563686F09
:101080004F6666290D0A00007015000873746570BC
:1010900020323A2073656E645F737472696E6728DC
:1010A00073746174696F6E5F6D6F6465290D0A00FA
:1010B0007374657020333A2073656E645F73747265
:1010C000696E6728636F6E6563745F746F5F41500C
:1010D000290D0A0041542B43574A41503D224150AB
:1010E0005F4E414D45222C2250415353574F52449D
:1010F000220D0A005749464920434F4E4E4543545E
:10110000454400007374657020343A2073656E6442
:101110005F737472696E6728636F6E6563745F7462
:101120006F5F41505F737461747573290D0A00001D
:101130004F4B00007374657020353A2073656E6400
:101140005F737472696E67286765745F4950290D13
:101150000A0000007374657020363A2073656E646F
:101160005F737472696E67284E6F4D756C74436F50
:101170006E6E290D0A000000222C00003139322E3B
:101180003136382E312E31373600000041542B4392
:10119000495053544152543D22544350222C220072
:1011A0002573257325732564257300005C0C0020CE
:1011B0007374657020373A20636F6E6E65637420B8
:1011C000746F207468652073657276657220747818
:1011D0003A2025730D0A0000434F4E4E45435400FC
:1011E0007374657020303A2073656E642075617287
:1011F0007446617374626175642074780D0A00002E
:1012000080841E0040000020003801407374657027
:1012100020383A20656E61626C65207472616E736D
:10122000706172656E74207472616E736D69737330
:10123000696F6E206D6F64652074780D0A00000080
:1012400041542B4349504D4F44453D310D0A000058
:1012500041542B43495053454E440D0A00000000B1
:1012600005490968C90105D54FF060410A68002A9F
:10127000FCD0087070470000FCED00E070B5C410B1
:1012800001D4D52501E05525E44308220B49204629
:1012900000F046F90146082802DB85F07F0070BDAA
:1012A0000801022903DAC4F34301084303E00C41B7
:1012B00004F00F010843684070BD000000000020EA
:1012C00008B50120FFF716F84FF08050FFF706F839
:1012D0007D4908684FF6FF0210407C4A40F4407098
:1012E000104308607A48416821F0E061416041683C
:1012F00041F000714160FFF731FC4FF0E0200169DF
:1013000041F002010161FFF78FFA7248416941F033
:1013100001014161406900F001000090FFF7A0FB6E
:1013200000221146FFF783FB01460B20FFF7A0FBCD
:101330000B20FFF771FBFFF793FB00221146FFF72D
:1013400076FB01460E20FFF793FB0E20FFF764FBB0
:10135000FFF7DAF9FFF7A0FAFFF7D8FA4FF4FA75BA
:101360002846FFF7C1F95C4E4FF4006B5C46C6F8A7
:1013700014B0C820FFF7B8F9346140F6B830FFF771
:10138000B3F9FFF7C9FD2C46544DE86880F40050CE
:10139000E86053A0FFF784FC584800F0D9F82146D4
:1013A00057A0FFF793FD0028EFD0FFF7B5FDFFF73B
:1013B000C5FDDFF850A14FF480620121544650462C
:1013C000FEF7C8FF4D4ADFF83C91521D09F10809AC
:1013D00013784D494D48174643F80910127809F122
:1013E000040842F8080001212046FEF79BFF3878E8
:1013F0002058397840F00400605001212046FEF763
:1014000085FF4348416941F0800141613B4A001D2D
:10141000521DD37843F80900D2783E4842F80800BC
:101420004FF400794A4604212046FEF793FF042139
:101430002046FEF777FF34484C38816841F00101BF
:101440008160816841F4801181603348016821F036
:1014500002010160C16841F00101C160016841F011
:1014600001010160C6F810B02C4C4FF400582078F0
:1014700061788842FBD00020244E264FE06020781F
:10148000E16806EB802030F811004146A0F5E160EC
:101490002061642801DD696100E02961FFF7EEFE4B
:1014A000E1687854491CE1604945E8D34A46042183
:1014B00056465046FEF74EFF04213046FEF726FF03
:1014C00020786070D3E700000CED00E00000FA0522
:1014D0000000014000100240000C014000100140DB
:1014E0007768696C65204553503031206D6F6475A5
:1014F0006C652072656164790D0A0000641500084E
:101500004F4B0000000002404C2401405C020020D0
:10151000003801405C0A0020000400404000002028
:1015200010B50346002003E010C99C4203DA401CBA
:101530009042F9DB104610BD04490860081F01689D
:10154000C1F380110029FAD070470000043801402F
:1015500000B5024602E0521CFFF7EEFF10780028AB
:10156000F9D100BD41540D0A00081C3044586C806C
:10157000415445300D0A0041542B554152545F43AC
:1015800055523D323030303030302C382C312C3008
:101590002C300D0A0041542B43574D4F44453D31EB
:1015A0000D0A0041542B43574A41503F0D0A004158
:1015B000542B43494653520D0A0041542B43495082
:1015C0004D55583D300D0A00081C3044586C8000C1
:1015D00000000000000000010203040607080900E3
:1015E00000000001020304000816000800000020AB
:1015F0005C000000E80C0008641600085C00002095
:1016000034100000F80C00081F0000003F0000002C
:101610007F000000FF000000FF010000FF0300004A
:10162000FF070000FF0F00003F0000007F000000E8
:10163000FF000000FF010000FF030000FF070000A3
:10164000FF0F0000FF1F00000001000000C20100AA
:10165000000000000000000000000000000000008A
:0416600000A24A0496
:04000005080000ED02
:00000001FF
